:100000000C942A000C9434000C9434000C943400AA
:100010000C9434000C9434000C9434000C9436008E
:100020000C9434000C9434000C9434000C94340080
:100030000C9434000C9434000C9434000C94340070
:100040000C9434000C9434000C9434000C94340060
:100050000C94340011241FBECFE5D8E0DEBFCDBF25
:100060000E9448000C9456000C9400001F920F92BE
:100070000FB60F9211248F939F9395B382E0892737
:1000800085BB9F918F910F900FBE0F901F90189579
:100090008FEF84BB8CE08EBD1DBC1CBC89E09DE352
:1000A0009BBD8ABD80E189BF7894FFCFF894FFCFD4
:00000001FF
